{
  "contractName": "WannaBet",
  "abi": [
    {
      "constant": true,
      "inputs": [],
      "name": "maxBet",
      "outputs": [
        {
          "name": "",
          "type": "uint256"
        }
      ],
      "payable": false,
      "stateMutability": "view",
      "type": "function"
    },
    {
      "constant": true,
      "inputs": [
        {
          "name": "",
          "type": "address"
        },
        {
          "name": "",
          "type": "uint256"
        }
      ],
      "name": "createdBets",
      "outputs": [
        {
          "name": "",
          "type": "bytes32"
        }
      ],
      "payable": false,
      "stateMutability": "view",
      "type": "function"
    },
    {
      "constant": true,
      "inputs": [
        {
          "name": "",
          "type": "address"
        },
        {
          "name": "",
          "type": "uint256"
        }
      ],
      "name": "openBets",
      "outputs": [
        {
          "name": "",
          "type": "bytes32"
        }
      ],
      "payable": false,
      "stateMutability": "view",
      "type": "function"
    },
    {
      "constant": true,
      "inputs": [],
      "name": "minTimeLimit",
      "outputs": [
        {
          "name": "",
          "type": "uint256"
        }
      ],
      "payable": false,
      "stateMutability": "view",
      "type": "function"
    },
    {
      "constant": true,
      "inputs": [],
      "name": "minBet",
      "outputs": [
        {
          "name": "",
          "type": "uint256"
        }
      ],
      "payable": false,
      "stateMutability": "view",
      "type": "function"
    },
    {
      "constant": true,
      "inputs": [
        {
          "name": "",
          "type": "bytes32"
        }
      ],
      "name": "bets",
      "outputs": [
        {
          "name": "betName",
          "type": "string"
        },
        {
          "name": "betAmount",
          "type": "uint256"
        },
        {
          "name": "betEndingTime",
          "type": "uint256"
        },
        {
          "name": "winner",
          "type": "uint8"
        },
        {
          "name": "currentStatus",
          "type": "uint8"
        },
        {
          "components": [
            {
              "name": "amountBet",
              "type": "uint256"
            },
            {
              "name": "voted",
              "type": "bool"
            },
            {
              "name": "playerAddress",
              "type": "address"
            },
            {
              "name": "vote",
              "type": "uint256"
            }
          ],
          "name": "player1",
          "type": "tuple"
        },
        {
          "components": [
            {
              "name": "amountBet",
              "type": "uint256"
            },
            {
              "name": "voted",
              "type": "bool"
            },
            {
              "name": "playerAddress",
              "type": "address"
            },
            {
              "name": "vote",
              "type": "uint256"
            }
          ],
          "name": "player2",
          "type": "tuple"
        }
      ],
      "payable": false,
      "stateMutability": "view",
      "type": "function"
    },
    {
      "constant": true,
      "inputs": [
        {
          "name": "",
          "type": "address"
        }
      ],
      "name": "playerStats",
      "outputs": [
        {
          "name": "totalAmountBet",
          "type": "uint256"
        },
        {
          "name": "totalNumberBet",
          "type": "uint256"
        },
        {
          "name": "totalNumberAgreements",
          "type": "uint256"
        },
        {
          "name": "totalNumberdisagreements",
          "type": "uint256"
        }
      ],
      "payable": false,
      "stateMutability": "view",
      "type": "function"
    },
    {
      "constant": true,
      "inputs": [
        {
          "name": "",
          "type": "address"
        },
        {
          "name": "",
          "type": "uint256"
        }
      ],
      "name": "ongoingBets",
      "outputs": [
        {
          "name": "",
          "type": "bytes32"
        }
      ],
      "payable": false,
      "stateMutability": "view",
      "type": "function"
    },
    {
      "constant": true,
      "inputs": [
        {
          "name": "",
          "type": "address"
        },
        {
          "name": "",
          "type": "uint256"
        }
      ],
      "name": "pastBets",
      "outputs": [
        {
          "name": "",
          "type": "bytes32"
        }
      ],
      "payable": false,
      "stateMutability": "view",
      "type": "function"
    },
    {
      "constant": true,
      "inputs": [],
      "name": "maxTimeLimit",
      "outputs": [
        {
          "name": "",
          "type": "uint256"
        }
      ],
      "payable": false,
      "stateMutability": "view",
      "type": "function"
    },
    {
      "inputs": [],
      "payable": true,
      "stateMutability": "payable",
      "type": "constructor"
    },
    {
      "constant": false,
      "inputs": [],
      "name": "toggleContractActive",
      "outputs": [],
      "payable": false,
      "stateMutability": "nonpayable",
      "type": "function"
    },
    {
      "constant": false,
      "inputs": [],
      "name": "kill",
      "outputs": [],
      "payable": false,
      "stateMutability": "nonpayable",
      "type": "function"
    },
    {
      "constant": false,
      "inputs": [
        {
          "name": "_betName",
          "type": "string"
        },
        {
          "name": "_timeLimitSeconds",
          "type": "uint256"
        },
        {
          "name": "_player2Address",
          "type": "address"
        }
      ],
      "name": "createBet",
      "outputs": [],
      "payable": true,
      "stateMutability": "payable",
      "type": "function"
    },
    {
      "constant": false,
      "inputs": [
        {
          "name": "_betName",
          "type": "string"
        },
        {
          "name": "_player1Address",
          "type": "address"
        }
      ],
      "name": "joinBet",
      "outputs": [],
      "payable": true,
      "stateMutability": "payable",
      "type": "function"
    },
    {
      "constant": false,
      "inputs": [
        {
          "name": "_betName",
          "type": "string"
        },
        {
          "name": "_vote",
          "type": "uint256"
        }
      ],
      "name": "castVote",
      "outputs": [],
      "payable": true,
      "stateMutability": "payable",
      "type": "function"
    },
    {
      "constant": false,
      "inputs": [
        {
          "name": "_betName",
          "type": "string"
        },
        {
          "name": "_player2Address",
          "type": "address"
        }
      ],
      "name": "cancelBet",
      "outputs": [],
      "payable": false,
      "stateMutability": "nonpayable",
      "type": "function"
    },
    {
      "constant": true,
      "inputs": [
        {
          "name": "_betName",
          "type": "string"
        }
      ],
      "name": "getBet",
      "outputs": [
        {
          "name": "betName",
          "type": "string"
        },
        {
          "name": "betAmount",
          "type": "uint256"
        },
        {
          "name": "betStatus",
          "type": "uint8"
        },
        {
          "name": "betEndTime",
          "type": "uint256"
        },
        {
          "name": "betWinner",
          "type": "uint8"
        },
        {
          "name": "p1Address",
          "type": "address"
        },
        {
          "name": "p2Address",
          "type": "address"
        },
        {
          "name": "p1Vote",
          "type": "uint256"
        },
        {
          "name": "p2Vote",
          "type": "uint256"
        },
        {
          "name": "",
          "type": "bytes32"
        }
      ],
      "payable": false,
      "stateMutability": "view",
      "type": "function"
    },
    {
      "constant": true,
      "inputs": [
        {
          "name": "_playerAddress",
          "type": "address"
        }
      ],
      "name": "getNumberOfPlayerBets",
      "outputs": [
        {
          "name": "num_createdBets",
          "type": "uint256"
        },
        {
          "name": "num_openBets",
          "type": "uint256"
        },
        {
          "name": "num_ongoingBets",
          "type": "uint256"
        },
        {
          "name": "num_pastBets",
          "type": "uint256"
        }
      ],
      "payable": false,
      "stateMutability": "view",
      "type": "function"
    },
    {
      "constant": true,
      "inputs": [
        {
          "name": "_playerAddress",
          "type": "address"
        }
      ],
      "name": "getOpenBets",
      "outputs": [
        {
          "name": "",
          "type": "bytes32[]"
        }
      ],
      "payable": false,
      "stateMutability": "view",
      "type": "function"
    },
    {
      "constant": true,
      "inputs": [
        {
          "name": "_playerAddress",
          "type": "address"
        }
      ],
      "name": "getOngoingBets",
      "outputs": [
        {
          "name": "",
          "type": "bytes32[]"
        }
      ],
      "payable": false,
      "stateMutability": "view",
      "type": "function"
    },
    {
      "constant": true,
      "inputs": [
        {
          "name": "_playerAddress",
          "type": "address"
        }
      ],
      "name": "getPastBest",
      "outputs": [
        {
          "name": "",
          "type": "bytes32[]"
        }
      ],
      "payable": false,
      "stateMutability": "view",
      "type": "function"
    },
    {
      "constant": true,
      "inputs": [
        {
          "name": "_playerAddress",
          "type": "address"
        }
      ],
      "name": "getCreatedBets",
      "outputs": [
        {
          "name": "",
          "type": "bytes32[]"
        }
      ],
      "payable": false,
      "stateMutability": "view",
      "type": "function"
    }
  ],
  "bytecode": "0x608060405260008060146101000a81548160ff021916908315150217905550662386f26fc10000600155678ac7230489e800006002556283d600600355610708600455336000806101000a81548173ffffffffffffffffffffffffffffffffffffffff021916908373ffffffffffffffffffffffffffffffffffffffff16021790555061401f806100916000396000f300608060405260043610610128576000357c0100000000000000000000000000000000000000000000000000000000900463ffffffff168063078d16001461012d5780631385d24c146102ca57806313f95d59146102e15780632e5b21681461036a5780632f6b2ec914610395578063324fcabb1461042d57806341c0e1b5146104c55780637294ee75146104dc578063778668331461055857806377ffc3ce146105c15780638b0e7137146106475780638d4d9956146106b0578063904f0e8a1461071c5780639619367d146107475780639f9be6bc14610772578063c902c3ae1461080a578063cdafbbb6146108fa578063cf9b021414610966578063dde36cd7146109cf578063e3b9e2fa14610a38578063ea987f9e14610a9e578063fa2bd35214610ac9575b600080fd5b34801561013957600080fd5b50610194600480360381019080803590602001908201803590602001908080601f0160208091040260200160405190810160405280939291908181526020018383808284378201915050505050509192919290505050610b61565b60405180806020018b81526020018a60038111156101ae57fe5b60ff1681526020018981526020018860028111156101c857fe5b60ff1681526020018773ffffffffffffffffffffffffffffffffffffffff1673ffffffffffffffffffffffffffffffffffffffff1681526020018673ffffffffffffffffffffffffffffffffffffffff1673ffffffffffffffffffffffffffffffffffffffff168152602001858152602001848152602001836000191660001916815260200182810382528c818151815260200191508051906020019080838360005b8381101561028657808201518184015260208101905061026b565b50505050905090810190601f1680156102b35780820380516001836020036101000a031916815260200191505b509b50505050505050505050505060405180910390f35b3480156102d657600080fd5b506102df610db4565b005b3480156102ed57600080fd5b50610368600480360381019080803590602001908201803590602001908080601f0160208091040260200160405190810160405280939291908181526020018383808284378201915050505050509192919290803573ffffffffffffffffffffffffffffffffffffffff169060200190929190505050610e3b565b005b34801561037657600080fd5b5061037f6111ff565b6040518082815260200191505060405180910390f35b3480156103a157600080fd5b506103d6600480360381019080803573ffffffffffffffffffffffffffffffffffffffff169060200190929190505050611205565b6040518080602001828103825283818151815260200191508051906020019060200280838360005b838110156104195780820151818401526020810190506103fe565b505050509050019250505060405180910390f35b34801561043957600080fd5b5061046e600480360381019080803573ffffffffffffffffffffffffffffffffffffffff1690602001909291905050506112a0565b6040518080602001828103825283818151815260200191508051906020019060200280838360005b838110156104b1578082015181840152602081019050610496565b505050509050019250505060405180910390f35b3480156104d157600080fd5b506104da61133b565b005b610556600480360381019080803590602001908201803590602001908080601f0160208091040260200160405190810160405280939291908181526020018383808284378201915050505050509192919290803573ffffffffffffffffffffffffffffffffffffffff1690602001909291905050506113cc565b005b34801561056457600080fd5b506105a3600480360381019080803573ffffffffffffffffffffffffffffffffffffffff16906020019092919080359060200190929190505050611a06565b60405180826000191660001916815260200191505060405180910390f35b610645600480360381019080803590602001908201803590602001908080601f016020809104026020016040519081016040528093929190818152602001838380828437820191505050505050919291929080359060200190929190803573ffffffffffffffffffffffffffffffffffffffff169060200190929190505050611a36565b005b34801561065357600080fd5b50610692600480360381019080803573ffffffffffffffffffffffffffffffffffffffff169060200190929190803590602001909291905050506120aa565b60405180826000191660001916815260200191505060405180910390f35b3480156106bc57600080fd5b506106f1600480360381019080803573ffffffffffffffffffffffffffffffffffffffff1690602001909291905050506120da565b6040518085815260200184815260200183815260200182815260200194505050505060405180910390f35b34801561072857600080fd5b506107316121fb565b6040518082815260200191505060405180910390f35b34801561075357600080fd5b5061075c612201565b6040518082815260200191505060405180910390f35b34801561077e57600080fd5b506107b3600480360381019080803573ffffffffffffffffffffffffffffffffffffffff169060200190929190505050612207565b6040518080602001828103825283818151815260200191508051906020019060200280838360005b838110156107f65780820151818401526020810190506107db565b505050509050019250505060405180910390f35b34801561081657600080fd5b5061083960048036038101908080356000191690602001909291905050506122a2565b604051808060200188815260200187815260200186600281111561085957fe5b60ff16815260200185600381111561086d57fe5b60ff168152602001848152602001838152602001828103825289818151815260200191508051906020019080838360005b838110156108b957808201518184015260208101905061089e565b50505050905090810190601f1680156108e65780820380516001836020036101000a031916815260200191505b509850505050505050505060405180910390f35b34801561090657600080fd5b5061093b600480360381019080803573ffffffffffffffffffffffffffffffffffffffff1690602001909291905050506124b6565b6040518085815260200184815260200183815260200182815260200194505050505060405180910390f35b34801561097257600080fd5b506109b1600480360381019080803573ffffffffffffffffffffffffffffffffffffffff169060200190929190803590602001909291905050506124e6565b60405180826000191660001916815260200191505060405180910390f35b3480156109db57600080fd5b50610a1a600480360381019080803573ffffffffffffffffffffffffffffffffffffffff16906020019092919080359060200190929190505050612516565b60405180826000191660001916815260200191505060405180910390f35b610a9c600480360381019080803590602001908201803590602001908080601f016020809104026020016040519081016040528093929190818152602001838380828437820191505050505050919291929080359060200190929190505050612546565b005b348015610aaa57600080fd5b50610ab36137df565b6040518082815260200191505060405180910390f35b348015610ad557600080fd5b50610b0a600480360381019080803573ffffffffffffffffffffffffffffffffffffffff1690602001909291905050506137e5565b6040518080602001828103825283818151815260200191508051906020019060200280838360005b83811015610b4d578082015181840152602081019050610b32565b505050509050019250505060405180910390f35b606060008060008060008060008060008060008c6040516020018082805190602001908083835b602083101515610bad5780518252602082019150602081019050602083039250610b88565b6001836020036101000a0380198251168184511680821785525050505050509050019150506040516020818303038152906040526040518082805190602001908083835b602083101515610c165780518252602082019150602081019050602083039250610bf1565b6001836020036101000a0380198251168184511680821785525050505050509050019150506040518091039020915060066000836000191660001916815260200190815260200160002090508060000181600101548260030160019054906101000a900460ff1683600201548460030160009054906101000a900460ff168560040160010160019054906101000a900473ffffffffffffffffffffffffffffffffffffffff168660070160010160019054906101000a900473ffffffffffffffffffffffffffffffffffffffff16876004016002015488600701600201548a898054600181600116156101000203166002900480601f016020809104026020016040519081016040528092919081815260200182805460018160011615610100020316600290048015610d8a5780601f10610d5f57610100808354040283529160200191610d8a565b820191906000526020600020905b815481529060010190602001808311610d6d57829003601f168201915b505050505099509b509b509b509b509b509b509b509b509b509b5050509193959799509193959799565b6000809054906101000a900473ffffffffffffffffffffffffffffffffffffffff1673ffffffffffffffffffffffffffffffffffffffff163373ffffffffffffffffffffffffffffffffffffffff16141515610e0f57600080fd5b600060149054906101000a900460ff1615600060146101000a81548160ff021916908315150217905550565b6000826040516020018082805190602001908083835b602083101515610e765780518252602082019150602081019050602083039250610e51565b6001836020036101000a0380198251168184511680821785525050505050509050019150506040516020818303038152906040526040518082805190602001908083835b602083101515610edf5780518252602082019150602081019050602083039250610eba565b6001836020036101000a038019825116818451168082178552505050505050905001915050604051809103902090504260066000836000191660001916815260200190815260200160002060020154111515610f3a57600080fd5b3373ffffffffffffffffffffffffffffffffffffffff1660066000836000191660001916815260200190815260200160002060040160010160019054906101000a900473ffffffffffffffffffffffffffffffffffffffff1673ffffffffffffffffffffffffffffffffffffffff16141515610fb557600080fd5b8173ffffffffffffffffffffffffffffffffffffffff1660066000836000191660001916815260200190815260200160002060070160010160019054906101000a900473ffffffffffffffffffffffffffffffffffffffff1673ffffffffffffffffffffffffffffffffffffffff1614151561103057600080fd5b6000600381111561103d57fe5b60066000836000191660001916815260200190815260200160002060030160019054906101000a900460ff16600381111561107457fe5b14151561108057600080fd5b600360066000836000191660001916815260200190815260200160002060030160016101000a81548160ff021916908360038111156110bb57fe5b02179055503373ffffffffffffffffffffffffffffffffffffffff166108fc600660008460001916600019168152602001908152602001600020600101549081150290604051600060405180830381858888f19350505050158015611124573d6000803e3d6000fd5b50600b60003373ffffffffffffffffffffffffffffffffffffffff1673ffffffffffffffffffffffffffffffffffffffff168152602001908152602001600020600101600081548092919060019003919050555060066000826000191660001916815260200190815260200160002060010154600b60003373ffffffffffffffffffffffffffffffffffffffff1673ffffffffffffffffffffffffffffffffffffffff168152602001908152602001600020600001600082825403925050819055506111f03382613880565b6111fa8282613a5e565b505050565b60025481565b6060600760008373ffffffffffffffffffffffffffffffffffffffff1673ffffffffffffffffffffffffffffffffffffffff16815260200190815260200160002080548060200260200160405190810160405280929190818152602001828054801561129457602002820191906000526020600020905b8154600019168152602001906001019080831161127c575b50505050509050919050565b6060600860008373ffffffffffffffffffffffffffffffffffffffff1673ffffffffffffffffffffffffffffffffffffffff16815260200190815260200160002080548060200260200160405190810160405280929190818152602001828054801561132f57602002820191906000526020600020905b81546000191681526020019060010190808311611317575b50505050509050919050565b6000809054906101000a900473ffffffffffffffffffffffffffffffffffffffff1673ffffffffffffffffffffffffffffffffffffffff163373ffffffffffffffffffffffffffffffffffffffff1614156113ca576000809054906101000a900473ffffffffffffffffffffffffffffffffffffffff1673ffffffffffffffffffffffffffffffffffffffff16ff5b565b600080600060149054906101000a900460ff161515611a005760015434101515156113f657600080fd5b600254341115151561140757600080fd5b836040516020018082805190602001908083835b602083101515611440578051825260208201915060208101905060208303925061141b565b6001836020036101000a0380198251168184511680821785525050505050509050019150506040516020818303038152906040526040518082805190602001908083835b6020831015156114a95780518252602082019150602081019050602083039250611484565b6001836020036101000a03801982511681845116808217855250505050505090500191505060405180910390209150339050426006600084600019166000191681526020019081526020016000206002015411151561150757600080fd5b8273ffffffffffffffffffffffffffffffffffffffff1660066000846000191660001916815260200190815260200160002060040160010160019054906101000a900473ffffffffffffffffffffffffffffffffffffffff1673ffffffffffffffffffffffffffffffffffffffff1614151561158257600080fd5b8073ffffffffffffffffffffffffffffffffffffffff1660066000846000191660001916815260200190815260200160002060070160010160019054906101000a900473ffffffffffffffffffffffffffffffffffffffff1673ffffffffffffffffffffffffffffffffffffffff161415156115fd57600080fd5b60066000836000191660001916815260200190815260200160002060070160010160019054906101000a900473ffffffffffffffffffffffffffffffffffffffff1673ffffffffffffffffffffffffffffffffffffffff1660066000846000191660001916815260200190815260200160002060040160010160019054906101000a900473ffffffffffffffffffffffffffffffffffffffff1673ffffffffffffffffffffffffffffffffffffffff16141515156116ba57600080fd5b34600660008460001916600019168152602001908152602001600020600101541415156116e657600080fd5b600160066000846000191660001916815260200190815260200160002060030160016101000a81548160ff0219169083600381111561172157fe5b021790555034600660008460001916600019168152602001908152602001600020600701600001819055506117568383613880565b6117608183613a5e565b600960008473ffffffffffffffffffffffffffffffffffffffff1673ffffffffffffffffffffffffffffffffffffffff168152602001908152602001600020829080600181540180825580915050906001820390600052602060002001600090919290919091509060001916905550600960008273ffffffffffffffffffffffffffffffffffffffff1673ffffffffffffffffffffffffffffffffffffffff168152602001908152602001600020829080600181540180825580915050906001820390600052602060002001600090919290919091509060001916905550600b60008273ffffffffffffffffffffffffffffffffffffffff1673ffffffffffffffffffffffffffffffffffffffff168152602001908152602001600020600101546001600b60008473ffffffffffffffffffffffffffffffffffffffff1673ffffffffffffffffffffffffffffffffffffffff1681526020019081526020016000206001015401111561192057600b60008273ffffffffffffffffffffffffffffffffffffffff1673ffffffffffffffffffffffffffffffffffffffff168152602001908152602001600020600101600081548092919060010191905055505b600b60008273ffffffffffffffffffffffffffffffffffffffff1673ffffffffffffffffffffffffffffffffffffffff1681526020019081526020016000206000015434600b60008473ffffffffffffffffffffffffffffffffffffffff1673ffffffffffffffffffffffffffffffffffffffff168152602001908152602001600020600001540111156119ff5734600b60008373ffffffffffffffffffffffffffffffffffffffff1673ffffffffffffffffffffffffffffffffffffffff168152602001908152602001600020600001600082825401925050819055505b5b50505050565b600760205281600052604060002081815481101515611a2157fe5b90600052602060002001600091509150505481565b6000806000611a43613e1a565b611a4b613e1a565b611a53613e5b565b600060149054906101000a900460ff16151561209f576001543410151515611a7a57600080fd5b6002543411151515611a8b57600080fd5b8760045411158015611a9f57506003548811155b1515611aaa57600080fd5b6001880242019550886040516020018082805190602001908083835b602083101515611aeb5780518252602082019150602081019050602083039250611ac6565b6001836020036101000a0380198251168184511680821785525050505050509050019150506040516020818303038152906040526040518082805190602001908083835b602083101515611b545780518252602082019150602081019050602083039250611b2f565b6001836020036101000a038019825116818451168082178552505050505050905001915050604051809103902094503393506080604051908101604052803481526020016000151581526020018573ffffffffffffffffffffffffffffffffffffffff16815260200160008152509250608060405190810160405280600081526020016000151581526020018873ffffffffffffffffffffffffffffffffffffffff1681526020016000815250915060e0604051908101604052808a815260200134815260200187815260200160006002811115611c2e57fe5b815260200160006003811115611c4057fe5b8152602001848152602001838152509050806006600087600019166000191681526020019081526020016000206000820151816000019080519060200190611c89929190613ebc565b50602082015181600101556040820151816002015560608201518160030160006101000a81548160ff02191690836002811115611cc257fe5b021790555060808201518160030160016101000a81548160ff02191690836003811115611ceb57fe5b021790555060a0820151816004016000820151816000015560208201518160010160006101000a81548160ff02191690831515021790555060408201518160010160016101000a81548173ffffffffffffffffffffffffffffffffffffffff021916908373ffffffffffffffffffffffffffffffffffffffff16021790555060608201518160020155505060c0820151816007016000820151816000015560208201518160010160006101000a81548160ff02191690831515021790555060408201518160010160016101000a81548173ffffffffffffffffffffffffffffffffffffffff021916908373ffffffffffffffffffffffffffffffffffffffff160217905550606082015181600201555050905050600760008573ffffffffffffffffffffffffffffffffffffffff1673ffffffffffffffffffffffffffffffffffffffff168152602001908152602001600020859080600181540180825580915050906001820390600052602060002001600090919290919091509060001916905550600860008873ffffffffffffffffffffffffffffffffffffffff1673ffffffffffffffffffffffffffffffffffffffff168152602001908152602001600020859080600181540180825580915050906001820390600052602060002001600090919290919091509060001916905550600b60008573ffffffffffffffffffffffffffffffffffffffff1673ffffffffffffffffffffffffffffffffffffffff168152602001908152602001600020600101546001600b60008773ffffffffffffffffffffffffffffffffffffffff1673ffffffffffffffffffffffffffffffffffffffff16815260200190815260200160002060010154011115611fbf57600b60008573ffffffffffffffffffffffffffffffffffffffff1673ffffffffffffffffffffffffffffffffffffffff168152602001908152602001600020600101600081548092919060010191905055505b600b60008573ffffffffffffffffffffffffffffffffffffffff1673ffffffffffffffffffffffffffffffffffffffff1681526020019081526020016000206000015434600b60008773ffffffffffffffffffffffffffffffffffffffff1673ffffffffffffffffffffffffffffffffffffffff1681526020019081526020016000206000015401111561209e5734600b60008673ffffffffffffffffffffffffffffffffffffffff1673ffffffffffffffffffffffffffffffffffffffff168152602001908152602001600020600001600082825401925050819055505b5b505050505050505050565b6008602052816000526040600020818154811015156120c557fe5b90600052602060002001600091509150505481565b600080600080600760008673ffffffffffffffffffffffffffffffffffffffff1673ffffffffffffffffffffffffffffffffffffffff16815260200190815260200160002080549050600860008773ffffffffffffffffffffffffffffffffffffffff1673ffffffffffffffffffffffffffffffffffffffff16815260200190815260200160002080549050600960008873ffffffffffffffffffffffffffffffffffffffff1673ffffffffffffffffffffffffffffffffffffffff16815260200190815260200160002080549050600a60008973ffffffffffffffffffffffffffffffffffffffff1673ffffffffffffffffffffffffffffffffffffffff1681526020019081526020016000208054905093509350935093509193509193565b60045481565b60015481565b6060600a60008373ffffffffffffffffffffffffffffffffffffffff1673ffffffffffffffffffffffffffffffffffffffff16815260200190815260200160002080548060200260200160405190810160405280929190818152602001828054801561229657602002820191906000526020600020905b8154600019168152602001906001019080831161227e575b50505050509050919050565b6006602052806000526040600020600091509050806000018054600181600116156101000203166002900480601f01602080910402602001604051908101604052809291908181526020018280546001816001161561010002031660029004801561234e5780601f106123235761010080835404028352916020019161234e565b820191906000526020600020905b81548152906001019060200180831161233157829003601f168201915b5050505050908060010154908060020154908060030160009054906101000a900460ff16908060030160019054906101000a900460ff16908060040160806040519081016040529081600082015481526020016001820160009054906101000a900460ff161515151581526020016001820160019054906101000a900473ffffffffffffffffffffffffffffffffffffffff1673ffffffffffffffffffffffffffffffffffffffff1673ffffffffffffffffffffffffffffffffffffffff168152602001600282015481525050908060070160806040519081016040529081600082015481526020016001820160009054906101000a900460ff161515151581526020016001820160019054906101000a900473ffffffffffffffffffffffffffffffffffffffff1673ffffffffffffffffffffffffffffffffffffffff1673ffffffffffffffffffffffffffffffffffffffff168152602001600282015481525050905087565b600b6020528060005260406000206000915090508060000154908060010154908060020154908060030154905084565b60096020528160005260406000208181548110151561250157fe5b90600052602060002001600091509150505481565b600a6020528160005260406000208181548110151561253157fe5b90600052602060002001600091509150505481565b600080600080600060149054906101000a900460ff1615156137d757856040516020018082805190602001908083835b60208310151561259b5780518252602082019150602081019050602083039250612576565b6001836020036101000a0380198251168184511680821785525050505050509050019150506040516020818303038152906040526040518082805190602001908083835b60208310151561260457805182526020820191506020810190506020830392506125df565b6001836020036101000a038019825116818451168082178552505050505050905001915050604051809103902093503392506006600085600019166000191681526020019081526020016000206004019150600660008560001916600019168152602001908152602001600020600701905042600660008660001916600019168152602001908152602001600020600201541115156126a257600080fd5b8273ffffffffffffffffffffffffffffffffffffffff168260010160019054906101000a900473ffffffffffffffffffffffffffffffffffffffff1673ffffffffffffffffffffffffffffffffffffffff16148061274f57508273ffffffffffffffffffffffffffffffffffffffff168160010160019054906101000a900473ffffffffffffffffffffffffffffffffffffffff1673ffffffffffffffffffffffffffffffffffffffff16145b151561275a57600080fd5b8160010160019054906101000a900473ffffffffffffffffffffffffffffffffffffffff1673ffffffffffffffffffffffffffffffffffffffff168373ffffffffffffffffffffffffffffffffffffffff161415612815578160010160009054906101000a900460ff161515156127d057600080fd5b60018514806127df5750600285145b15156127ea57600080fd5b84826002018190555060018260010160006101000a81548160ff021916908315150217905550612874565b8060010160009054906101000a900460ff1615151561283357600080fd5b60018514806128425750600285145b151561284d57600080fd5b84816002018190555060018160010160006101000a81548160ff0219169083151502179055505b8160010160009054906101000a900460ff1680156128a057508060010160009054906101000a900460ff165b156137d6578160010160009054906101000a900460ff1615156128c257600080fd5b8060010160009054906101000a900460ff1615156128df57600080fd5b600160038111156128ec57fe5b60066000866000191660001916815260200190815260200160002060030160019054906101000a900460ff16600381111561292357fe5b14151561292f57600080fd5b600260066000866000191660001916815260200190815260200160002060030160016101000a81548160ff0219169083600381111561296a57fe5b021790555080600201548260020154141561328c57600b60008360010160019054906101000a900473ffffffffffffffffffffffffffffffffffffffff1673ffffffffffffffffffffffffffffffffffffffff1673ffffffffffffffffffffffffffffffffffffffff168152602001908152602001600020600201546001600b60008560010160019054906101000a900473ffffffffffffffffffffffffffffffffffffffff1673ffffffffffffffffffffffffffffffffffffffff1673ffffffffffffffffffffffffffffffffffffffff16815260200190815260200160002060020154011115612acd57600b60008360010160019054906101000a900473ffffffffffffffffffffffffffffffffffffffff1673ffffffffffffffffffffffffffffffffffffffff1673ffffffffffffffffffffffffffffffffffffffff168152602001908152602001600020600201600081548092919060010191905055505b600b60008260010160019054906101000a900473ffffffffffffffffffffffffffffffffffffffff1673ffffffffffffffffffffffffffffffffffffffff1673ffffffffffffffffffffffffffffffffffffffff168152602001908152602001600020600201546001600b60008460010160019054906101000a900473ffffffffffffffffffffffffffffffffffffffff1673ffffffffffffffffffffffffffffffffffffffff1673ffffffffffffffffffffffffffffffffffffffff16815260200190815260200160002060020154011115612c1b57600b60008260010160019054906101000a900473ffffffffffffffffffffffffffffffffffffffff1673ffffffffffffffffffffffffffffffffffffffff1673ffffffffffffffffffffffffffffffffffffffff168152602001908152602001600020600201600081548092919060010191905055505b60018260020154148015612c33575060018160020154145b15612f515760018260020154141515612c4b57600080fd5b60018160020154141515612c5e57600080fd5b600160066000866000191660001916815260200190815260200160002060030160006101000a81548160ff02191690836002811115612c9957fe5b0217905550612ccc8260010160019054906101000a900473ffffffffffffffffffffffffffffffffffffffff1685613c3c565b612cfa8160010160019054906101000a900473ffffffffffffffffffffffffffffffffffffffff1685613c3c565b600a60008360010160019054906101000a900473ffffffffffffffffffffffffffffffffffffffff1673ffffffffffffffffffffffffffffffffffffffff1673ffffffffffffffffffffffffffffffffffffffff168152602001908152602001600020849080600181540180825580915050906001820390600052602060002001600090919290919091509060001916905550600a60008260010160019054906101000a900473ffffffffffffffffffffffffffffffffffffffff1673ffffffffffffffffffffffffffffffffffffffff1673ffffffffffffffffffffffffffffffffffffffff1681526020019081526020016000208490806001815401808255809150509060018203906000526020600020016000909192909190915090600019169055508160010160019054906101000a900473ffffffffffffffffffffffffffffffffffffffff1673ffffffffffffffffffffffffffffffffffffffff166108fc600a60126006600089600019166000191681526020019081526020016000206001015402811515612e8b57fe5b049081150290604051600060405180830381858888f19350505050158015612eb7573d6000803e3d6000fd5b508060010160019054906101000a900473ffffffffffffffffffffffffffffffffffffffff1673ffffffffffffffffffffffffffffffffffffffff166108fc600a60026006600089600019166000191681526020019081526020016000206001015402811515612f2357fe5b049081150290604051600060405180830381858888f19350505050158015612f4f573d6000803e3d6000fd5b505b60028260020154148015612f69575060028160020154145b156132875760028260020154141515612f8157600080fd5b60028160020154141515612f9457600080fd5b600260066000866000191660001916815260200190815260200160002060030160006101000a81548160ff02191690836002811115612fcf57fe5b02179055506130028260010160019054906101000a900473ffffffffffffffffffffffffffffffffffffffff1685613c3c565b6130308160010160019054906101000a900473ffffffffffffffffffffffffffffffffffffffff1685613c3c565b600a60008360010160019054906101000a900473ffffffffffffffffffffffffffffffffffffffff1673ffffffffffffffffffffffffffffffffffffffff1673ffffffffffffffffffffffffffffffffffffffff168152602001908152602001600020849080600181540180825580915050906001820390600052602060002001600090919290919091509060001916905550600a60008260010160019054906101000a900473ffffffffffffffffffffffffffffffffffffffff1673ffffffffffffffffffffffffffffffffffffffff1673ffffffffffffffffffffffffffffffffffffffff1681526020019081526020016000208490806001815401808255809150509060018203906000526020600020016000909192909190915090600019169055508060010160019054906101000a900473ffffffffffffffffffffffffffffffffffffffff1673ffffffffffffffffffffffffffffffffffffffff166108fc600a601260066000896000191660001916815260200190815260200160002060010154028115156131c157fe5b049081150290604051600060405180830381858888f193505050501580156131ed573d6000803e3d6000fd5b508160010160019054906101000a900473ffffffffffffffffffffffffffffffffffffffff1673ffffffffffffffffffffffffffffffffffffffff166108fc600a6002600660008960001916600019168152602001908152602001600020600101540281151561325957fe5b049081150290604051600060405180830381858888f19350505050158015613285573d6000803e3d6000fd5b505b6137d5565b600b60008360010160019054906101000a900473ffffffffffffffffffffffffffffffffffffffff1673ffffffffffffffffffffffffffffffffffffffff1673ffffffffffffffffffffffffffffffffffffffff168152602001908152602001600020600301546001600b60008560010160019054906101000a900473ffffffffffffffffffffffffffffffffffffffff1673ffffffffffffffffffffffffffffffffffffffff1673ffffffffffffffffffffffffffffffffffffffff168152602001908152602001600020600301540111156133da57600b60008360010160019054906101000a900473ffffffffffffffffffffffffffffffffffffffff1673ffffffffffffffffffffffffffffffffffffffff1673ffffffffffffffffffffffffffffffffffffffff168152602001908152602001600020600301600081548092919060010191905055505b600b60008260010160019054906101000a900473ffffffffffffffffffffffffffffffffffffffff1673ffffffffffffffffffffffffffffffffffffffff1673ffffffffffffffffffffffffffffffffffffffff168152602001908152602001600020600301546001600b60008460010160019054906101000a900473ffffffffffffffffffffffffffffffffffffffff1673ffffffffffffffffffffffffffffffffffffffff1673ffffffffffffffffffffffffffffffffffffffff1681526020019081526020016000206003015401111561352857600b60008260010160019054906101000a900473ffffffffffffffffffffffffffffffffffffffff1673ffffffffffffffffffffffffffffffffffffffff1673ffffffffffffffffffffffffffffffffffffffff168152602001908152602001600020600301600081548092919060010191905055505b6135568260010160019054906101000a900473ffffffffffffffffffffffffffffffffffffffff1685613c3c565b6135848160010160019054906101000a900473ffffffffffffffffffffffffffffffffffffffff1685613c3c565b600a60008360010160019054906101000a900473ffffffffffffffffffffffffffffffffffffffff1673ffffffffffffffffffffffffffffffffffffffff1673ffffffffffffffffffffffffffffffffffffffff168152602001908152602001600020849080600181540180825580915050906001820390600052602060002001600090919290919091509060001916905550600a60008260010160019054906101000a900473ffffffffffffffffffffffffffffffffffffffff1673ffffffffffffffffffffffffffffffffffffffff1673ffffffffffffffffffffffffffffffffffffffff1681526020019081526020016000208490806001815401808255809150509060018203906000526020600020016000909192909190915090600019169055508160010160019054906101000a900473ffffffffffffffffffffffffffffffffffffffff1673ffffffffffffffffffffffffffffffffffffffff166108fc600a6006600088600019166000191681526020019081526020016000206001015481151561371257fe5b049081150290604051600060405180830381858888f1935050505015801561373e573d6000803e3d6000fd5b508060010160019054906101000a900473ffffffffffffffffffffffffffffffffffffffff1673ffffffffffffffffffffffffffffffffffffffff166108fc600a600660008860001916600019168152602001908152602001600020600101548115156137a757fe5b049081150290604051600060405180830381858888f193505050501580156137d3573d6000803e3d6000fd5b505b5b5b505050505050565b60035481565b6060600960008373ffffffffffffffffffffffffffffffffffffffff1673ffffffffffffffffffffffffffffffffffffffff16815260200190815260200160002080548060200260200160405190810160405280929190818152602001828054801561387457602002820191906000526020600020905b8154600019168152602001906001019080831161385c575b50505050509050919050565b600080600760008573ffffffffffffffffffffffffffffffffffffffff1673ffffffffffffffffffffffffffffffffffffffff168152602001908152602001600020805490509150600090505b81811015613a58578260001916600760008673ffffffffffffffffffffffffffffffffffffffff1673ffffffffffffffffffffffffffffffffffffffff1681526020019081526020016000208281548110151561392657fe5b9060005260206000200154600019161415613a4b57600760008573ffffffffffffffffffffffffffffffffffffffff1673ffffffffffffffffffffffffffffffffffffffff1681526020019081526020016000206001830381548110151561398a57fe5b9060005260206000200154600760008673ffffffffffffffffffffffffffffffffffffffff1673ffffffffffffffffffffffffffffffffffffffff168152602001908152602001600020828154811015156139e157fe5b906000526020600020018160001916905550600760008573ffffffffffffffffffffffffffffffffffffffff1673ffffffffffffffffffffffffffffffffffffffff168152602001908152602001600020805480919060019003613a459190613f3c565b50613a58565b80806001019150506138cd565b50505050565b600080600860008573ffffffffffffffffffffffffffffffffffffffff1673ffffffffffffffffffffffffffffffffffffffff168152602001908152602001600020805490509150600090505b81811015613c36578260001916600860008673ffffffffffffffffffffffffffffffffffffffff1673ffffffffffffffffffffffffffffffffffffffff16815260200190815260200160002082815481101515613b0457fe5b9060005260206000200154600019161415613c2957600860008573ffffffffffffffffffffffffffffffffffffffff1673ffffffffffffffffffffffffffffffffffffffff16815260200190815260200160002060018303815481101515613b6857fe5b9060005260206000200154600860008673ffffffffffffffffffffffffffffffffffffffff1673ffffffffffffffffffffffffffffffffffffffff16815260200190815260200160002082815481101515613bbf57fe5b906000526020600020018160001916905550600860008573ffffffffffffffffffffffffffffffffffffffff1673ffffffffffffffffffffffffffffffffffffffff168152602001908152602001600020805480919060019003613c239190613f3c565b50613c36565b8080600101915050613aab565b50505050565b600080600960008573ffffffffffffffffffffffffffffffffffffffff1673ffffffffffffffffffffffffffffffffffffffff168152602001908152602001600020805490509150600090505b81811015613e14578260001916600960008673ffffffffffffffffffffffffffffffffffffffff1673ffffffffffffffffffffffffffffffffffffffff16815260200190815260200160002082815481101515613ce257fe5b9060005260206000200154600019161415613e0757600960008573ffffffffffffffffffffffffffffffffffffffff1673ffffffffffffffffffffffffffffffffffffffff16815260200190815260200160002060018303815481101515613d4657fe5b9060005260206000200154600960008673ffffffffffffffffffffffffffffffffffffffff1673ffffffffffffffffffffffffffffffffffffffff16815260200190815260200160002082815481101515613d9d57fe5b906000526020600020018160001916905550600960008573ffffffffffffffffffffffffffffffffffffffff1673ffffffffffffffffffffffffffffffffffffffff168152602001908152602001600020805480919060019003613e019190613f3c565b50613e14565b8080600101915050613c89565b50505050565b60806040519081016040528060008152602001600015158152602001600073ffffffffffffffffffffffffffffffffffffffff168152602001600081525090565b6101a06040519081016040528060608152602001600081526020016000815260200160006002811115613e8a57fe5b815260200160006003811115613e9c57fe5b8152602001613ea9613f68565b8152602001613eb6613f68565b81525090565b828054600181600116156101000203166002900490600052602060002090601f016020900481019282601f10613efd57805160ff1916838001178555613f2b565b82800160010185558215613f2b579182015b82811115613f2a578251825591602001919060010190613f0f565b5b509050613f389190613fa9565b5090565b815481835581811115613f6357818360005260206000209182019101613f629190613fce565b5b505050565b60806040519081016040528060008152602001600015158152602001600073ffffffffffffffffffffffffffffffffffffffff168152602001600081525090565b613fcb91905b80821115613fc7576000816000905550600101613faf565b5090565b90565b613ff091905b80821115613fec576000816000905550600101613fd4565b5090565b905600a165627a7a72305820cd8906cc42765db52a795920cf43ec1a9031833c6bb8946fd0504eaf50b4e0280029",
  "source": "pragma solidity ^0.4.24;\n\ncontract WannaBet {\n\n    address private creator;\n    bool private stopped = false;\n\n    modifier isAdmin() {\n        require(msg.sender == creator);\n        _;\n    }\n\n    function toggleContractActive(\n    ) \n        public\n        isAdmin \n    {\n        stopped = !stopped;\n    }\n\n    modifier stopInEmergency { if (!stopped) _; }\n    modifier onlyInEmergency { if (stopped) _; }\n\n    uint public minBet = 10 finney;     // Equal to 0.001 Ether\n    uint public maxBet = 10000 finney;  // Equal to 10 Ether\n    uint public maxTimeLimit = 8640000; // Equal to 100 days\n    uint public minTimeLimit = 1800;    // Equal to 30 minutes\n\n    mapping (address => Player) players;\n    mapping (bytes32 => Bet) public bets;\n    mapping (address => bytes32[]) public createdBets;\n    mapping (address => bytes32[]) public openBets;\n    mapping (address => bytes32[]) public ongoingBets;\n    mapping (address => bytes32[]) public pastBets;\n\n    mapping (address => Stats) public playerStats;\n\n    enum BetStatus {created, joined, completed, cancelled}\n    enum BetWinner {None, Player1, Player2}\n\n    struct Bet {\n         string betName;\n         uint256 betAmount;\n         uint256 betEndingTime;\n         BetWinner winner;\n         BetStatus currentStatus;\n         Player player1;\n         Player player2;\n    }\n\n    struct Player {\n        uint amountBet;\n        bool voted;                 // if true, that person already voted\n        address playerAddress;      // person delegated to\n        uint vote;                  // who user voted for\n    }\n\n    struct Stats {\n        uint totalAmountBet;              // amount of value player bet over lifetime\n        uint totalNumberBet;              // number of times player bet over lifetime\n        uint totalNumberAgreements;       // number of times player agreed on outcome of bet over lifetime\n        uint totalNumberdisagreements;    // number of times player disagreed on outcome of bet over lifetime\n    }\n\n    function WannaBet(\n    ) \n        public \n        payable \n    {\n        creator = msg.sender;\n    }\n\n    function kill(\n    ) \n    {\n        if(msg.sender == creator)\n        selfdestruct(creator);\n    }\n\n\n    function createBet(\n        string _betName, \n        uint256 _timeLimitSeconds, \n        address _player2Address\n    ) \n        public \n        stopInEmergency \n        payable \n    {\n        require (msg.value >= minBet);\n        require (msg.value <= maxBet);\n        require (minTimeLimit <= _timeLimitSeconds && _timeLimitSeconds <= maxTimeLimit);\n        uint256 betEndingTime = now + _timeLimitSeconds * 1 seconds;\n        bytes32 _betId = keccak256(abi.encodePacked(_betName));\n        address _player1Address = msg.sender;\n        Player memory _player1 = Player(msg.value, false, _player1Address, 0);\n        Player memory _player2 = Player(0, false, _player2Address, 0);\n        Bet memory createdBet = Bet(_betName, msg.value, betEndingTime, BetWinner.None, BetStatus.created , _player1, _player2);\n\n        bets[_betId] = createdBet;\n        createdBets[_player1Address].push(_betId);\n        openBets[_player2Address].push(_betId);\n\n        // Check for integer overflow when updating stats\n        if (playerStats[_player1Address].totalNumberBet + 1 > playerStats[_player1Address].totalNumberBet) {\n            playerStats[_player1Address].totalNumberBet++;\n        }\n\n        if (playerStats[_player1Address].totalAmountBet + msg.value > playerStats[_player1Address].totalAmountBet) {\n            playerStats[_player1Address].totalAmountBet += msg.value;\n        }\n    }\n\n    function joinBet(\n        string _betName, \n        address _player1Address\n    ) \n        public \n        stopInEmergency \n        payable \n    {\n        require (msg.value >= minBet);\n        require (msg.value <= maxBet);\n        bytes32 betId = keccak256(abi.encodePacked(_betName));\n        address _player2Address = msg.sender;\n        require( bets[betId].betEndingTime > now );\n        require( bets[betId].player1.playerAddress == _player1Address );\n        require( bets[betId].player2.playerAddress == _player2Address );\n        require( bets[betId].player1.playerAddress != bets[betId].player2.playerAddress );\n        require( bets[betId].betAmount == msg.value );\n        bets[betId].currentStatus = BetStatus.joined;\n        bets[betId].player2.amountBet = msg.value;\n        deleteCreatedBet(_player1Address, betId);\n        deleteOpenBet(_player2Address, betId);\n\n\n        ongoingBets[_player1Address].push(betId);\n        ongoingBets[_player2Address].push(betId);\n\n        if (playerStats[_player2Address].totalNumberBet + 1 > playerStats[_player2Address].totalNumberBet) {\n            playerStats[_player2Address].totalNumberBet++;\n        }\n\n        if (playerStats[_player2Address].totalAmountBet + msg.value > playerStats[_player2Address].totalAmountBet) {\n            playerStats[_player2Address].totalAmountBet += msg.value;\n        }\n    }\n\n    function castVote(\n        string _betName, \n        uint _vote\n    ) \n        public \n        stopInEmergency \n        payable \n    {\n        bytes32 betId = keccak256(abi.encodePacked(_betName));\n        address playerAddress = msg.sender;\n\n        Player storage player1 = bets[betId].player1;\n        Player storage player2 = bets[betId].player2;\n\n        require( bets[betId].betEndingTime > now );\n        require( player1.playerAddress == playerAddress || player2.playerAddress == playerAddress);\n\n        if (playerAddress == player1.playerAddress){\n            require (!player1.voted);\n            require (_vote == 1 || _vote == 2);\n            player1.vote = _vote;\n            player1.voted = true;\n        }\n        else {\n            require (!player2.voted);\n            require (_vote == 1 || _vote == 2);\n            player2.vote = _vote;\n            player2.voted = true;\n        }\n\n        if (player1.voted && player2.voted) {\n            require(player1.voted);\n            require(player2.voted);\n            require(bets[betId].currentStatus == BetStatus.joined);\n            bets[betId].currentStatus = BetStatus.completed;\n\n            if (player1.vote == player2.vote){\n                // Winner is agreed on\n                // Check for integer overflow\n                if (playerStats[player1.playerAddress].totalNumberAgreements + 1 > playerStats[player1.playerAddress].totalNumberAgreements) {\n                    playerStats[player1.playerAddress].totalNumberAgreements++;\n                }\n                if (playerStats[player2.playerAddress].totalNumberAgreements + 1 > playerStats[player2.playerAddress].totalNumberAgreements) {\n                    playerStats[player2.playerAddress].totalNumberAgreements++;\n                }\n\n                if (player1.vote == 1 && player2.vote == 1){\n                    require(player1.vote == 1);\n                    require(player2.vote == 1);\n                    bets[betId].winner = BetWinner.Player1;\n                    // Remove ended bet\n                    deleteOngoingBet(player1.playerAddress, betId);\n                    deleteOngoingBet(player2.playerAddress, betId);\n                    // Add to past bets\n                    pastBets[player1.playerAddress].push(betId);\n                    pastBets[player2.playerAddress].push(betId);\n                    player1.playerAddress.transfer((bets[betId].betAmount*18)/10); // Winner gets 90% of total bet amount\n                    player2.playerAddress.transfer((bets[betId].betAmount*2)/10);  // Loser gets 10% of total bet amount\n                }\n                if (player1.vote == 2 && player2.vote == 2){\n                    require(player1.vote == 2);\n                    require(player2.vote == 2);\n                    bets[betId].winner = BetWinner.Player2;\n                    // Remove ended bet\n                    deleteOngoingBet(player1.playerAddress, betId);\n                    deleteOngoingBet(player2.playerAddress, betId);\n                    // Add to past bets\n                    pastBets[player1.playerAddress].push(betId);\n                    pastBets[player2.playerAddress].push(betId);\n                    player2.playerAddress.transfer((bets[betId].betAmount*18)/10); // Winner gets 90% of total bet amount\n                    player1.playerAddress.transfer((bets[betId].betAmount*2)/10);  // Loser gets 10% of total bet amount\n                }\n            }\n            else {\n                // Disagreement\n                // Check for integer overflow\n                if (playerStats[player1.playerAddress].totalNumberdisagreements + 1 > playerStats[player1.playerAddress].totalNumberdisagreements) {\n                    playerStats[player1.playerAddress].totalNumberdisagreements++;\n                }\n                if (playerStats[player2.playerAddress].totalNumberdisagreements + 1 > playerStats[player2.playerAddress].totalNumberdisagreements) {\n                    playerStats[player2.playerAddress].totalNumberdisagreements++;\n                }\n                // Remove ended bet\n                deleteOngoingBet(player1.playerAddress, betId);\n                deleteOngoingBet(player2.playerAddress, betId);\n                // Add to past bets\n                pastBets[player1.playerAddress].push(betId);\n                pastBets[player2.playerAddress].push(betId);\n                player1.playerAddress.transfer(bets[betId].betAmount/10);       // Disagreers get 5%\n                player2.playerAddress.transfer(bets[betId].betAmount/10);       // Disagreers get 5%\n            }\n        }\n    }\n\n\n    function cancelBet(\n        string _betName, \n        address _player2Address\n    ) \n        public \n    {\n        bytes32 betId = keccak256(abi.encodePacked(_betName));\n        require(bets[betId].betEndingTime > now );\n        require(bets[betId].player1.playerAddress == msg.sender);\n        require(bets[betId].player2.playerAddress == _player2Address);\n        require(bets[betId].currentStatus == BetStatus.created);\n        bets[betId].currentStatus = BetStatus.cancelled;\n        msg.sender.transfer(bets[betId].betAmount);\n        playerStats[msg.sender].totalNumberBet--;\n        playerStats[msg.sender].totalAmountBet -= bets[betId].betAmount;\n        deleteCreatedBet(msg.sender, betId);\n        deleteOpenBet(_player2Address, betId);\n    }\n\n    function getBet(\n        string _betName\n    ) \n        public \n        view \n        returns (\n            string betName, \n            uint256 betAmount, \n            BetStatus betStatus, \n            uint256 betEndTime, \n            BetWinner betWinner, \n            address p1Address, \n            address p2Address, \n            uint256 p1Vote, \n            uint256 p2Vote,\n            bytes32\n        ) \n    {\n        bytes32 betId = keccak256(abi.encodePacked(_betName));\n        Bet storage currentBet = bets[betId];\n        return (\n            currentBet.betName,\n            currentBet.betAmount,\n            currentBet.currentStatus,\n            currentBet.betEndingTime,\n            currentBet.winner,\n            currentBet.player1.playerAddress,\n            currentBet.player2.playerAddress,\n            currentBet.player1.vote,\n            currentBet.player2.vote,\n            betId\n        );\n    }\n\n    function getNumberOfPlayerBets(\n        address _playerAddress\n    ) \n        public \n        view \n        returns (\n            uint num_createdBets, \n            uint num_openBets, \n            uint num_ongoingBets, \n            uint num_pastBets\n        ) \n    {\n        return (\n            createdBets[_playerAddress].length, \n            openBets[_playerAddress].length, \n            ongoingBets[_playerAddress].length, \n            pastBets[_playerAddress].length\n        );\n    }\n\n\n    function deleteCreatedBet(\n        address _playerAddress,\n        bytes32 _betId\n    ) \n        private \n    {\n        uint length = createdBets[_playerAddress].length;\n        for(uint index = 0;index<length;index++){\n            if(createdBets[_playerAddress][index]==_betId){\n                createdBets[_playerAddress][index] = createdBets[_playerAddress][length-1];\n                createdBets[_playerAddress].length--;\n                break;\n            }\n        }\n    }\n\n     function deleteOpenBet(\n        address _playerAddress, \n        bytes32 _betId\n    ) \n        private \n    {\n        uint length = openBets[_playerAddress].length;\n        for(uint index = 0;index<length;index++){\n            if(openBets[_playerAddress][index]==_betId){\n                openBets[_playerAddress][index] = openBets[_playerAddress][length-1];\n                openBets[_playerAddress].length--;\n                break;\n            }\n        }\n    }\n\n     function deleteOngoingBet(\n        address _playerAddress, \n        bytes32 _betId\n    ) \n        private \n    {\n        uint length = ongoingBets[_playerAddress].length;\n        for(uint index = 0;index<length;index++){\n            if(ongoingBets[_playerAddress][index]==_betId){\n                ongoingBets[_playerAddress][index] = ongoingBets[_playerAddress][length-1];\n                ongoingBets[_playerAddress].length--;\n                break;\n            }\n        }\n    }\n\n    function getOpenBets(\n        address _playerAddress\n    )\n        public\n        view\n        returns (\n            bytes32[]\n        )\n    {\n        return openBets[_playerAddress];\n    }\n    \n    function getOngoingBets(\n        address _playerAddress\n    )\n        public\n        view\n        returns (\n            bytes32[]\n        )\n    {\n        return ongoingBets[_playerAddress];\n    }\n    \n    function getPastBest(\n        address _playerAddress\n    )\n        public\n        view\n        returns (\n            bytes32[]\n        )\n    {\n        return pastBets[_playerAddress];\n    }\n\n    function getCreatedBets(\n        address _playerAddress\n    )\n        public\n        view\n        returns (\n            bytes32[]\n        )\n    {\n        return createdBets[_playerAddress];\n    }\n\n}",
  "sourcePath": "/Users/marksher/Box Sync/dev/WannaBetMobile/contracts/WannaBet.sol",
  "compiler": {
    "name": "solc",
    "version": "0.4.24+commit.e67f0147.Emscripten.clang"
  },
  "schemaVersion": "2.0.1",
  "updatedAt": "2018-09-20T23:16:52.224Z"
}